:020000040800F2
:10000000000500209D01000823170008B71500080F
:100010002117000861040008FF1800080000000014
:10002000000000000000000000000000271700088A
:100030001505000800000000251700082917000812
:10004000B7010008B7010008B7010008B7010008B0
:10005000B7010008B7010008B7010008B7010008A0
:10006000B7010008B7010008B7010008B701000890
:10007000B7010008B7010008B7010008B701000880
:10008000B7010008B7010008B7010008B701000870
:10009000B7010008B7010008B7010008B701000860
:1000A000B7010008B7010008B7010008B701000850
:1000B000B7010008B7010008B7010008B701000840
:1000C000B7010008B7010008B7010008B701000830
:1000D000B7010008B7010008B7010008B701000820
:1000E000B7010008B7010008B7010008B701000810
:1000F000B7010008B7010008B7010008B701000800
:10010000B7010008B7010008B7010008B7010008EF
:10011000B7010008B7010008B7010008B7010008DF
:1001200065040008B7010008B7010008B70100081E
:10013000B7010008B7010008B7010008B7010008BF
:10014000B7010008B7010008B7010008B7010008AF
:10015000B7010008B7010008B7010008B70100089F
:10016000B7010008B7010008B7010008B70100088F
:10017000B7010008B7010008B7010008000000003F
:10018000B7010008B7010008DFF80CD000F07AF8DA
:100190000048004741190008000500200648804734
:1001A00006480047FEE7FEE7FEE7FEE7FEE7FEE75C
:1001B000FEE7FEE7FEE7FEE7B11700088901000849
:1001C0002DE9F05F0546002092469B46884606468C
:1001D000814640241BE0284641464746224600F01F
:1001E00041F853465A46C01A914110D31146184659
:1001F000224600F016F82D1A67EB01084F462246FA
:100200000120002100F00DF817EB00094E41201EDF
:10021000A4F10104DFDC484631462A464346BDE8E6
:10022000F09F202A04DB203A00FA02F100207047F8
:100230009140C2F1200320FA03F319439040704724
:10024000D2B201E000F8012B491EFBD27047002218
:10025000F6E710B513460A4604461946FFF7F0FFC5
:10026000204610BD202A04DB203A21FA02F00021AA
:10027000704721FA02F3D040C2F1200291400843B6
:1002800019467047064C074D06E0E06840F0010350
:1002900094E8070098471034AC42F6D3FFF778FF94
:1002A000A8190008C819000810B50146806B026C37
:1002B00012F0500F05D0026CD20626D500F0E1F9FD
:1002C00010BD016C41F40071016401688A6812F08C
:1002D000405F17D1027EAAB9CA6A12F4700F02D029
:1002E0008A6852050ED44A6822F020024A60016CE6
:1002F00021F480710164016CC90403D4016C41F0E4
:100300000101016400F0AEF910BD806BC26CBDE864
:1003100010400846104710B5806B40210164416CC5
:1003200041F00401416400F0ACF910BD10B5806BE0
:1003300000F0A6F910BD0000464910B54A6822F445
:1003400040324A604A6843681A434A6001684A6812
:1003500022F480724A6001684A68036942EA032213
:100360004A6001684A6822F040724A6001684A683F
:1003700083681A434A6001688A6822F400628A60CE
:1003800001688A68C3681A438A60816A6FF0706284
:10039000D14201688A6822F070628A6001688A68C6
:1003A0000CD0836A1A438A6001688A6822F040523E
:1003B0008A6001688A68C36A1A4301E022F04052E9
:1003C0008A6001688A6822F002028A6001688A688D
:1003D000037E42EA43028A6090F8201000290168F7
:1003E0004A680FD042F400624A6001684A6822F409
:1003F00060424A6001684A68174C436A04EB433321
:100400001A4301E022F400624A600168CA6A22F4D9
:100410007002CA620168CA6A838B104C04EB0353F2
:100420001A43CA6201688A6822F400728A6001680D
:100430008A6890F8303042EA43228A6001688A680C
:1004400022F480628A6001688A68406942EA8020FA
:10045000886010BD0023014000E0FFFF0000F0FFB6
:10046000FEE70000014800F01BBA00005C0000201D
:1004700001681823CAB2103AB2FBF3F2054B6FF3CE
:100480000901032A9B5CC36500D9091D81650846E3
:10049000704700009019000810B5014600208B69D4
:1004A0008A6A4FF0C07453B1B3F5005F15D072B1D2
:1004B000012A0CD0022A0AD0032A09D104E01AB179
:1004C000012A06D0022A03D1C96AC90100D5012038
:1004D00010BDC96AA142FAD010BD002AF7D0012A86
:1004E000F2D0022AF3D0032AF3D010BD30B504684D
:1004F000256825F480252560046863608368402BA7
:10050000036803D099600068C26030BD9A600068DB
:10051000C16030BD7047704778B50024009490F8F2
:100520003C20012A19D0012280F83C200A680723C8
:100530000568092A13D9EE680A3A02EB4202934091
:100540009E43EE600B788A680A3B03EB43039A40B4
:100550000368DD682A43DA6010E0022078BD2E6966
:1005600002EB420293409E432E610B788A6803EBB4
:1005700043039A4003681D692A431A614A681F238E
:10058000072A13D205686E6B521E02EB820293405B
:100590009E436E630B790A885B1E92B203EB830362
:1005A0009A4003685D6B2A435A6327E005680D2A69
:1005B00012D22E6BD21F02EB820293409E432E6317
:1005C0000B790A88DB1F92B203EB83039A4003681E
:1005D0001D6B2A431A6311E0EE6A0D3A02EB8202A8
:1005E00093409E43EE620B790A880D3B92B203EB77
:1005F00083039A400368DD6A2A43DA62164B056872
:10060000144A9D4206D10D68122D03D1556845F458
:100610008005556005689D4218D10B68102B01D0EC
:10062000112B13D1536843F4000353600968102958
:100630000CD10A490A4A0968B1FBF2F101EB8101C8
:10064000490000E0491E00910029FBD180F83C40A0
:10065000002078BD00230140002001401000002050
:1006600040420F0010B54FF48051034800F078FB72
:1006700002480188418010BD000C024000000020AB
:100680007047704770B504004FF0000503D0206C30
:10069000002610B107E0012070BD204600F01CF8D4
:1006A000666484F83C60206CC00610D4206C20F492
:1006B000885040F0020020642046FFF73DFE66644B
:1006C000206C20F0020040F00100206400E00125D1
:1006D00084F83C60284670BD70B586B0064614218B
:1006E0006846FFF7B4FD1D493068884234D11C4884
:1006F0000025016841F480710160006800F4807099
:10070000059017481438016841F001010160006844
:10071000694600F001000590022000900320CDE919
:100720000105104800F040FA104C0F48C4E90005DC
:100730000015A560C4E90350400060618000A0611D
:100740004011C4E907052046656200F079F908B157
:10075000FFF7E1FEB463A66306B070BD0020014060
:100760004438024000000240106402405C00002057
:10077000F8B50E4600210446009190F83C0001288F
:1007800007D0012084F83C0020688368DB0702D092
:1007900011E00220F8BD836843F00103836037480D
:1007A000374B0068B0FBF3F000EB400000E0401E68
:1007B00000900028FBD120688368DB075CD0236CA5
:1007C00040F20165AB4343F4807323644068400505
:1007D00005D5206C20F4005040F480502064206C3B
:1007E000C00404D5606C20F00600606400E0616421
:1007F00084F83C10A16B2448224DC863A16B2348A8
:100800000864A16B2248C86421686FF02200086068
:100810002068416841F0806141602068816841F44E
:10082000807181602168134632464C31A06B00F024
:1008300071F968681749C006206806D088421BD144
:10084000816811F0405F13D016E08842F8D0124A58
:10085000904203D1D1F80423D206F1D00F4A90423E
:100860000AD1D1F8041301F01F011029E8D303E0E5
:10087000816841F0804181600020F8BD10000020B7
:1008800040420F0000230140A90200082D03000888
:100890001703000800200140002101400022014010
:1008A0002DE9F84304464FF00009CDF80090634865
:1008B0004FF41651A56D0068B0FBF1F72E6894F85F
:1008C0005C10082000FA01F131420FD021680A685B
:1008D00052070BD50A6822F004020A6094F85C10F3
:1008E0008840A860606D40F00100606594F85C107D
:1008F0004FF0010808FA01F0304208D02168496938
:10090000090604D5A860606D40F00200606594F8A7
:100910005C1004208840304208D0216809688907AB
:1009200004D5A860606D40F00400606594F85C1028
:1009300010208840304218D021680968090714D572
:10094000A86020680168490304D50068000308D541
:10095000A16C07E00168C90503D4016821F0080112
:100960000160216C09B12046884794F85C10202072
:100970008840304231D021680968C9062DD5A86069
:1009800094F8350005282068016806D0490347D54A
:10099000006800031DD4616C1CE021F016010160A9
:1009A0002068416921F080014161206C08B9A06C88
:1009B00020B12068016821F00801016094F85C1002
:1009C0003F208840A86084F8349084F83580216DF9
:1009D0001FE0E16B09B120468847606D00282BD0ED
:1009E000606DC00714D0052084F8350020680168C8
:1009F00021F0010101600098401C0090B84203D82A
:100A000020680068C007F6D184F8349084F83580F7
:100A1000E16C002910D001B02046BDE8F043084742
:100A20000168C905D5D4016821F01001016084F87E
:100A3000349084F83580CCE7BDE8F88310000020BE
:100A40002DE9F041044600F097F906465CB1002517
:100A500084F83450022084F835002068016821F0C1
:100A6000010101600DE00120BDE8F08100F084F992
:100A7000801B052805D920206065032084F83500F7
:100A8000F2E720680068C007F0D1226811682048AA
:100A90000140D4E901031843D4E903363343184332
:100AA00063691843A3691843E3691843236A184329
:100AB0000843616A042903D1D4E90B13194308439D
:100AC000106020684069666A20F0070130460E43D6
:100AD000012704280CD1A06A0643E06A40B12046F1
:100AE000FFF7DAFC20B14020606584F83570BAE782
:100AF000206846612046FFF7BBFC94F85C203F214C
:100B000091408160656584F835700020ACE7000095
:100B10003F8010F02DE9F0410446866D90F83400D6
:100B2000002501280DD0012084F8340094F8357098
:100B30000020012F07D084F8340002252846BDE8A4
:100B4000F0810220FBE7022784F8357060652046BB
:100B5000FFF7CCFC94F85C103F208840B060206820
:100B6000016841F016010160206C20B12068016825
:100B700041F0080101602068016841F00101016055
:100B8000DCE7000070B5044600F0F6F80546601C8E
:100B900002D004480078044400F0EEF8401BA04264
:100BA000FAD370BD040000202DE9F84F00224FF069
:100BB000010803254FF00F0E0B6808FA02F42340DA
:100BC000A3426ED14E68012E05D0022E03D0112E05
:100BD00001D0122E12D186684FEA420C05FA0CF7AA
:100BE000BE43CF6807FA0CF7374387604668A643D1
:100BF0000C79C4F30014944034434460C668570031
:100C000005FA07FC8C6826EA0C06BC403443C46035
:100C10004C68022C01D0122C13D1D40800EB8404B0
:100C2000A346D4F8209054074FEAD46A0EFA0AF685
:100C300029EA06090E6906FA0AF646EA0906CBF819
:100C4000206006680C7926EA0C0604F00304BC4018
:100C5000344304604C68E40065D5364C266846F49D
:100C600080462660246822F0030604F48044009441
:100C7000314C3444A446D4F808489607370F0EFA8E
:100C800007F6B4432D4EB04201D1002624E02C4E8D
:100C9000B04201D101261FE02A4EB04202D1022605
:100CA0001AE040E0284EB04201D1032614E0274E5E
:100CB000B04201D104260FE0254EB04201D10526F5
:100CC0000AE0244EB04201D1062605E0224EB04291
:100CD00001D1072600E00826BE402643CCF808686C
:100CE0001E4E34684F689C43FF0300D51C4334609C
:100CF0001A4C241D26684F689E43BF0300D51E432F
:100D00002660164E083634684F689C43FF0200D5B3
:100D10001C433460114E0C3634684F689C43BF024C
:100D200000D51C433460521C102AFFF445AFBDE8C7
:100D3000F88F0000443802400030014000000240BB
:100D40000004024000080240000C02400010024073
:100D50000014024000180240001C0240003C014008
:100D6000426931EA020200D10904816170470AB187
:100D7000816170470904FBE7014880687047000003
:100D800004000020024881680278114481607047A5
:100D9000040000200B4810B5016841F400710160A7
:100DA000016841F480610160016841F48071016073
:100DB000032000F06FF8002000F006F800F024F89F
:100DC000002010BD003C024070B50D4D04464FF4AC
:100DD0007A712878B1FBF0F00A490968B1FBF0F0AC
:100DE00000F0E2FA48B9102C07D200222146501E2A
:100DF00000F030F800206C6070BD012070BD000074
:100E000004000020100000200A4808B5016841F4E1
:100E100080410160006800F4804000900548001F98
:100E2000016841F080510160006800F0805000903E
:100E300008BD000044380240002809DB00F01F0212
:100E4000012191404009800000F1E020C0F800112C
:100E500070470000F0B40E4B1B680C46C3F302232E
:100E6000C3F10705042D00D90425191D072901D256
:100E7000002300E0DB1E012606FA05F1491E214091
:100E800099409E40761E16403143F0BC00F038BDBC
:100E90000CED00E0064900F0070208684FF6FF037A
:100EA000184040EA0220034A1043086070470000DF
:100EB0000CED00E00000FA052DE9F0470E460500B4
:100EC00065D0DFF81481D8F80000F7B200F00F0009
:100ED000B04207D288F80070D8F8000000F00F0088
:100EE000B04254D128683D4C810712D5400703D544
:100EF000206840F4E05020602878000703D520687F
:100F000040F4604020602068A96820F0F0000843A9
:100F100020602878C0072DD030496868083901283A
:100F200012D0022813D0032811D00968890700299C
:100F30002DDA216821F0030101432160FFF71CFF36
:100F4000814641F2883A0EE009688903EFE70968B3
:100F50008901ECE7FFF710FFA0EB0901514502D929
:100F60000320BDE8F0872068696800F00C00B0EB52
:100F7000810FEFD1D8F80010404601F00F01B142C7
:100F800007D90770006800F00F00B04201D00120BF
:100F9000E7E72878400705D52068E96820F4E050A5
:100FA000084320602878000706D52068296920F4C6
:100FB000604040EAC100206000F018F82168084A4B
:100FC000C1F30311515CC840064908600648006837
:100FD000FFF7FAFE0020C4E7003C02400838024058
:100FE000981900081000002008000020154810B5CE
:100FF000006810F00C02144813D04110042A0FD0DE
:10100000082A0ED10F4C241F2268236802F03F02E9
:101010005B0207D52068C0F38810A0FB010106E041
:10102000084610BD2168C1F38811A1FB000100230F
:10103000FFF7C6F82168C1F30141491C4900B0FB24
:10104000F1F010BD083802400024F4002DE9F84FFB
:1010500004006ED02078DFF83C93C007A9F10405A6
:101060004AD009F104000168C1F38101012908D0C7
:101070000068C0F3810002280AD1D9F800004002BC
:1010800006D52868800337D560680028E1D033E0B2
:101090006068B0F5803F10D0B0F5A02F286810D060
:1010A00020F480302860286820F480202860606860
:1010B000A8B1FFF761FE06460DE0286840F48030D5
:1010C000F4E740F480202860F7E700BFFFF754FE04
:1010D000801B642873D828688003F7D50CE0FFF7DD
:1010E0004BFE064605E000BFFFF746FE801B642866
:1010F000F0D828688003F7D42078DFF89C82800736
:101100004FF0000A3ED5A348001D016811F00C0FF6
:1011100008D00068C0F3810002280BD1D9F8000084
:10112000400207D42868800716D5E068012800D15E
:1011300012E02BE1E068B8B10120C8F80000FFF729
:101140001BFE064605E000BFFFF716FE801B0228C7
:10115000C0D828688007F7D52868216920F0F800F2
:1011600040EAC10028600DE0C8F800A0FFF704FEC7
:10117000064604E0FFF700FE801B02281FD82868FF
:101180008007F7D42078000722D5824E8348616912
:10119000703671B101210160FFF7EEFD074604E0F2
:1011A000FFF7EAFDC01B022809D830688007F7D591
:1011B0000EE0C0F800A0FFF7DFFD074605E082E083
:1011C000FFF7DAFDC01B02287DD830688007F7D40E
:1011D0002078400768D5DFF8BCB100270BF13C0B45
:1011E000DBF80000C0000BD4DBF8001041F08051A8
:1011F000CBF80010DBF80000012700F080500090D1
:10120000674E3068C00510D4306840F4807030609C
:10121000FFF7B2FD009005E0FFF7AEFD0099401A20
:10122000022850D83068C005F6D55A4EA0686C36F2
:1012300001280FD00528306810D020F00100306060
:10124000306820F004003060A068B8B1FFF794FD6A
:1012500000900FE0306840F00100F4E740F0040037
:101260003060F7E7FFF788FD0099411A41F28830B6
:10127000814266D830688007F4D50EE0FFF77CFD28
:10128000009007E0FFF778FD0099411A41F288309D
:10129000814256D830688007F4D42FB1DBF80010B3
:1012A00021F08051CBF80010A069C8B33949091D5D
:1012B0000968C1F3810102294AD00228504607D0AB
:1012C000C8F8600000E03CE0FFF756FD04463BE054
:1012D0004746C8F86000FFF74FFD064605E000BF2F
:1012E000FFF74AFD801B02282BD828688001F7D41D
:1012F000D4E907010843A16A2A4A490802EB0141DF
:10130000626A41EA8211084394F82C1040EA0161B4
:10131000C9F8001001203866FFF72EFD044606E0EC
:1013200036E000BFFFF728FD001B022809D8286817
:101330008001F7D52CE000BFFFF71EFD001B02283F
:1013400002D90320BDE8F88F28688001F4D41FE09B
:101350000128F7D0D9F80000E26900F48001914239
:1013600014D1226A00F03F0191420FD147F6C071BB
:10137000626A0140914209D1A26A00F4403191426F
:1013800004D1E16A00F07060884201D00120D9E701
:101390000020D7E70438024000004742800E474251
:1013A000007000400000FFFF10B5401EB0F1807FCC
:1013B00001D3012010BD4FF0E02460610F216017C0
:1013C00000F09EFA0020A06107202061002010BDDF
:1013D00070B590F83C20012A32D0012480F83C40BE
:1013E000022280F83D2003685A689D6822F070064A
:1013F0000A6832435A60134B02689A4214D0B2F121
:10140000804F11D0104B9A420ED0104B9A420BD005
:101410000F4B9A4208D00F4B9A4205D00E4B9A427E
:1014200002D00E4B9A4204D1496825F0800319433B
:10143000916080F83D40002180F83C10084670BD66
:10144000022070BD00000140000400400008004080
:10145000000C004000040140004001400018004022
:1014600010B5040003D094F83D0010B107E001204E
:1014700010BD002084F83C00204600F00DF802204A
:1014800084F83D00211D206800F0A0F9012084F8B7
:101490003D00002010BD000008B50068B0F1804F8D
:1014A00008D10548016841F001010160006800F0C1
:1014B0000100009008BD000040380240022180F881
:1014C0003D1001688A6802F00702062A03D00A6804
:1014D00042F001020A60012180F83D1000207047AF
:1014E00070B5044690F83C00012817D0012584F817
:1014F0003C50022084F83D002068826822F0770288
:1015000022F47F4282600868502830D00DDC202809
:101510004DD005DC98B310283BD148E0022070BDC7
:10152000302844D0402834D139E0602828D07028B1
:1015300006D0B0F5805F2CD0B0F5005F29D10AE06D
:10154000CB68D1E90121206800F0A4F92068816806
:1015500041F0770109E0CB68D1E90121206800F072
:1015600099F92068816841F48041816011E0CA687E
:101570004968206800F0A0F95021206807E016E0D3
:10158000CA684968206800F0A8F96021206800F066
:101590008BF984F83D50002084F83C0070BDCA6887
:1015A0004968206800F088F940212068EFE7226848
:1015B00001461046EBE7FEE77FB50024164800948D
:1015C000019402941349039401604FF48031C0E9FF
:1015D00001140461047680F820404903C1620125AA
:1015E000C5614FF0C061C460816280F830504561D0
:1015F000FFF748F808B1FEF78EFF0095CDE90154DA
:1016000069460548FEF788FF002801D0FEF783FFF2
:101610007FBD00000020014014000020094808B5EB
:10162000016841F4800101600068002200F480003C
:10163000009011463820FFF70DFCBDE80840382027
:10164000FFF7FABB3038024070B586B01421684607
:10165000FEF7FDFD16480024016841F0800101609D
:10166000016801F080010591016841F0010101600C
:10167000016801F001010591016841F00801016074
:1016800000680C4E00F008004FF4704505900022F1
:1016900029463046FFF76BFB01200095CDE9010498
:1016A000694630460394FFF77FFA06B070BD00002C
:1016B00030380240000C024000B587B000211748C6
:1016C000009101910291039104914FF080420591A4
:1016D000C0E9002141F2DF52C0E9021201618161DB
:1016E000FFF7BEFE08B1FEF716FF4FF480500090E2
:1016F00069460A48FFF7F4FE08B1FEF70CFF202008
:1017000004908020059004A90448FFF761FE00289A
:1017100001D0FEF700FF07B000BD0000BC000020B4
:10172000FEE7704770477047FFF72CBB30B593B0AA
:1017300030216846FEF78BFD14210CA8FEF787FDCB
:1017400019480025016841F080510160006800F0EF
:10175000805011901548016841F480410160006893
:10176000022400F4804011900120009000040190B8
:101770008001CDE9064008AA0420A82182E81300D0
:101780000B906846FFF762FC0CA90F2081E831003E
:101790004FF4A0500F90E002109005210CA8FFF725
:1017A0008BFB13B030BD0000403802400070004099
:1017B0000548016841F47001016003494FF0006081
:1017C000803908607047000088ED00E0F0B50268DD
:1017D000254C264D264E274F274B4FF0804CA042DC
:1017E00009D0604507D0A84205D0B04203D0B84226
:1017F00001D0984204D122F0700E4A6842EA0E02EB
:10180000A0421BD0604519D0A84217D0B04215D0D5
:10181000B84213D0984211D0184DA8420ED0184D9E
:10182000A8420BD0174DA84208D0174DA84205D0AA
:10183000164DA84202D0164DA84203D122F440759D
:10184000CA682A434D6922F080022A4302608A68EE
:10185000C2620A688262A04201D0984201D109693D
:10186000016301214161F0BD00000140000400401E
:1018700000080040000C004000040140004001400E
:10188000004401400048014000180040001C004096
:101890000020004010B5846842EA032224F47F440B
:1018A0000A432243826010BD826822F070020A431C
:1018B00042F007018160704710B5036A046A24F0A2
:1018C00001040462846924F0F00444EA021423F061
:1018D0000A020A438461026210BD10B5036A23F054
:1018E000100303628369046A23F4704343EA0232FB
:1018F00024F0A00343EA01118261016210BDFEE7FA
:101900000907090E002804DB00F1E02080F800142C
:10191000704700F00F0000F1E02080F8141D7047C0
:1019200002E008C8121F08C1002AFAD170477047A8
:10193000002001E001C1121F002AFBD17047000006
:10194000FFF728FAFFF7F2FEFFF77EFEFFF766FECD
:10195000FFF732FEFFF7B0FE012209490948FEF702
:1019600007FF0948FFF7AAFD084D4FF460442146E0
:101970002846FFF7F5F96420FFF704F9F7E70000C0
:101980000000002014000020BC000020000C0240D9
:1019900000061016000610160000000000000000EF
:1019A0000102030406070809C81900080000002006
:1019B0001400000020190008DC19000814000020A1
:1019C000EC040000301900080000000001000000D5
:0C19D00010000000000000000024F400E3
:040000050800018965
:00000001FF
